{
  "_format": "hh-sol-artifact-1",
  "contractName": "BettingMarket",
  "sourceName": "contracts/BettingMarket.sol",
  "abi": [
    {
      "inputs": [
        {
          "internalType": "string",
          "name": "_title",
          "type": "string"
        },
        {
          "internalType": "uint256",
          "name": "_numOptions",
          "type": "uint256"
        },
        {
          "internalType": "address",
          "name": "_paymentTokenAddress",
          "type": "address"
        }
      ],
      "stateMutability": "nonpayable",
      "type": "constructor"
    },
    {
      "anonymous": false,
      "inputs": [
        {
          "indexed": false,
          "internalType": "string",
          "name": "_marketTitle",
          "type": "string"
        },
        {
          "indexed": false,
          "internalType": "uint256",
          "name": "_totalOptions",
          "type": "uint256"
        }
      ],
      "name": "MarketCreated",
      "type": "event"
    },
    {
      "anonymous": false,
      "inputs": [
        {
          "indexed": true,
          "internalType": "address",
          "name": "previousOwner",
          "type": "address"
        },
        {
          "indexed": true,
          "internalType": "address",
          "name": "newOwner",
          "type": "address"
        }
      ],
      "name": "OwnershipTransferred",
      "type": "event"
    },
    {
      "anonymous": false,
      "inputs": [
        {
          "indexed": true,
          "internalType": "uint256",
          "name": "_optionId",
          "type": "uint256"
        },
        {
          "indexed": true,
          "internalType": "address",
          "name": "_buyer",
          "type": "address"
        },
        {
          "indexed": false,
          "internalType": "uint256",
          "name": "_amount",
          "type": "uint256"
        }
      ],
      "name": "SharesPurchased",
      "type": "event"
    },
    {
      "anonymous": false,
      "inputs": [
        {
          "indexed": true,
          "internalType": "uint256",
          "name": "_optionId",
          "type": "uint256"
        },
        {
          "indexed": true,
          "internalType": "address",
          "name": "_seller",
          "type": "address"
        },
        {
          "indexed": false,
          "internalType": "uint256",
          "name": "_amount",
          "type": "uint256"
        }
      ],
      "name": "SharesSold",
      "type": "event"
    },
    {
      "inputs": [
        {
          "internalType": "uint256",
          "name": "_optionId",
          "type": "uint256"
        }
      ],
      "name": "getOptionDetails",
      "outputs": [
        {
          "internalType": "uint256",
          "name": "",
          "type": "uint256"
        },
        {
          "internalType": "uint256",
          "name": "",
          "type": "uint256"
        },
        {
          "internalType": "uint256",
          "name": "",
          "type": "uint256"
        }
      ],
      "stateMutability": "view",
      "type": "function"
    },
    {
      "inputs": [],
      "name": "marketTitle",
      "outputs": [
        {
          "internalType": "string",
          "name": "",
          "type": "string"
        }
      ],
      "stateMutability": "view",
      "type": "function"
    },
    {
      "inputs": [
        {
          "internalType": "uint256",
          "name": "",
          "type": "uint256"
        }
      ],
      "name": "options",
      "outputs": [
        {
          "internalType": "uint256",
          "name": "totalShares",
          "type": "uint256"
        },
        {
          "internalType": "uint256",
          "name": "yesShares",
          "type": "uint256"
        },
        {
          "internalType": "uint256",
          "name": "noShares",
          "type": "uint256"
        }
      ],
      "stateMutability": "view",
      "type": "function"
    },
    {
      "inputs": [],
      "name": "owner",
      "outputs": [
        {
          "internalType": "address",
          "name": "",
          "type": "address"
        }
      ],
      "stateMutability": "view",
      "type": "function"
    },
    {
      "inputs": [],
      "name": "paymentToken",
      "outputs": [
        {
          "internalType": "contract IERC20",
          "name": "",
          "type": "address"
        }
      ],
      "stateMutability": "view",
      "type": "function"
    },
    {
      "inputs": [
        {
          "internalType": "uint256",
          "name": "_optionId",
          "type": "uint256"
        },
        {
          "internalType": "uint256",
          "name": "_amount",
          "type": "uint256"
        },
        {
          "internalType": "uint256",
          "name": "_outcome",
          "type": "uint256"
        }
      ],
      "name": "purchaseShares",
      "outputs": [],
      "stateMutability": "nonpayable",
      "type": "function"
    },
    {
      "inputs": [],
      "name": "renounceOwnership",
      "outputs": [],
      "stateMutability": "nonpayable",
      "type": "function"
    },
    {
      "inputs": [
        {
          "internalType": "uint256",
          "name": "_optionId",
          "type": "uint256"
        },
        {
          "internalType": "uint256",
          "name": "_amount",
          "type": "uint256"
        },
        {
          "internalType": "uint256",
          "name": "_outcome",
          "type": "uint256"
        }
      ],
      "name": "sellShares",
      "outputs": [],
      "stateMutability": "nonpayable",
      "type": "function"
    },
    {
      "inputs": [
        {
          "internalType": "address",
          "name": "_paymentTokenAddress",
          "type": "address"
        }
      ],
      "name": "setPaymentToken",
      "outputs": [],
      "stateMutability": "nonpayable",
      "type": "function"
    },
    {
      "inputs": [],
      "name": "totalOptions",
      "outputs": [
        {
          "internalType": "uint256",
          "name": "",
          "type": "uint256"
        }
      ],
      "stateMutability": "view",
      "type": "function"
    },
    {
      "inputs": [
        {
          "internalType": "address",
          "name": "newOwner",
          "type": "address"
        }
      ],
      "name": "transferOwnership",
      "outputs": [],
      "stateMutability": "nonpayable",
      "type": "function"
    },
    {
      "inputs": [
        {
          "internalType": "address",
          "name": "",
          "type": "address"
        },
        {
          "internalType": "uint256",
          "name": "",
          "type": "uint256"
        }
      ],
      "name": "userOptions",
      "outputs": [
        {
          "internalType": "uint256",
          "name": "totalShares",
          "type": "uint256"
        },
        {
          "internalType": "uint256",
          "name": "yesShares",
          "type": "uint256"
        },
        {
          "internalType": "uint256",
          "name": "noShares",
          "type": "uint256"
        }
      ],
      "stateMutability": "view",
      "type": "function"
    }
  ],
  "bytecode": "0x60806040523480156200001157600080fd5b506040516200100c3803806200100c83398101604081905262000034916200015c565b6200003f33620000b3565b60016200004d8482620002c1565b506002829055600580546001600160a01b0319166001600160a01b0383161790556040517f99629d33c36a5fd55882ba11f7a646284ff7929d5aa53c6a8650425959de378b90620000a290859085906200038d565b60405180910390a1505050620003ca565b600080546001600160a01b038381166001600160a01b0319831681178455604051919092169283917f8be0079c531659141344cd1fd0a4f28419497f9722a3daafe3b4186f6b6457e09190a35050565b634e487b7160e01b600052604160045260246000fd5b60005b83811015620001365781810151838201526020016200011c565b50506000910152565b80516001600160a01b03811681146200015757600080fd5b919050565b6000806000606084860312156200017257600080fd5b83516001600160401b03808211156200018a57600080fd5b818601915086601f8301126200019f57600080fd5b815181811115620001b457620001b462000103565b604051601f8201601f19908116603f01168101908382118183101715620001df57620001df62000103565b81604052828152896020848701011115620001f957600080fd5b6200020c83602083016020880162000119565b80975050505050506020840151915062000229604085016200013f565b90509250925092565b600181811c908216806200024757607f821691505b6020821081036200026857634e487b7160e01b600052602260045260246000fd5b50919050565b601f821115620002bc57600081815260208120601f850160051c81016020861015620002975750805b601f850160051c820191505b81811015620002b857828155600101620002a3565b5050505b505050565b81516001600160401b03811115620002dd57620002dd62000103565b620002f581620002ee845462000232565b846200026e565b602080601f8311600181146200032d5760008415620003145750858301515b600019600386901b1c1916600185901b178555620002b8565b600085815260208120601f198616915b828110156200035e578886015182559484019460019091019084016200033d565b50858210156200037d5787850151600019600388901b60f8161c191681555b5050505050600190811b01905550565b6040815260008351806040840152620003ae81606085016020880162000119565b602083019390935250601f91909101601f191601606001919050565b610c3280620003da6000396000f3fe608060405234801561001057600080fd5b50600436106100d45760003560e01c80638da5cb5b11610081578063d67c68721161005b578063d67c6872146101f8578063e73122021461020b578063f2fde38b1461022057600080fd5b80638da5cb5b146101bd57806399bc4d96146101ce578063b3543889146101e157600080fd5b8063409e2205116100b2578063409e2205146101715780636a326ab1146101a0578063715018a6146101b557600080fd5b80631c858f2b146100d95780633013ce29146101335780633be146fe1461015e575b600080fd5b6101136100e7366004610a7f565b600460209081526000928352604080842090915290825290208054600182015460029092015490919083565b604080519384526020840192909252908201526060015b60405180910390f35b600554610146906001600160a01b031681565b6040516001600160a01b03909116815260200161012a565b61011361016c366004610aa9565b610233565b61011361017f366004610aa9565b60036020526000908152604090208054600182015460029092015490919083565b6101b36101ae366004610ac2565b6102a6565b005b6101b36102dd565b6000546001600160a01b0316610146565b6101b36101dc366004610ae4565b6102f1565b6101ea60025481565b60405190815260200161012a565b6101b3610206366004610ae4565b610570565b61021361088e565b60405161012a9190610b10565b6101b361022e366004610ac2565b61091c565b60008060008360025481106102835760405162461bcd60e51b8152602060048201526011602482015270125b9d985b1a59081bdc1d1a5bdb881251607a1b60448201526064015b60405180910390fd5b505050600091825250600360205260409020805460018201546002909201549092565b6102ae6109ac565b6005805473ffffffffffffffffffffffffffffffffffffffff19166001600160a01b0392909216919091179055565b6102e56109ac565b6102ef6000610a06565b565b8260025481106103375760405162461bcd60e51b8152602060048201526011602482015270125b9d985b1a59081bdc1d1a5bdb881251607a1b604482015260640161027a565b600084815260036020908152604080832033845260048352818420888552909252909120846103a85760405162461bcd60e51b815260206004820152601460248201527f496e76616c696420736861726520616d6f756e74000000000000000000000000604482015260640161027a565b6005546040517f23b872dd000000000000000000000000000000000000000000000000000000008152336004820152306024820152604481018790526001600160a01b03909116906323b872dd906064016020604051808303816000875af1158015610418573d6000803e3d6000fd5b505050506040513d601f19601f8201168201806040525081019061043c9190610b5e565b508360010361047f57848260010160008282546104599190610b96565b92505081905550848160010160008282546104749190610b96565b909155506104fe9050565b836000036104b6578482600201600082825461049b9190610b96565b92505081905550848160020160008282546104749190610b96565b60405162461bcd60e51b815260206004820152600f60248201527f496e76616c6964206f7574636f6d650000000000000000000000000000000000604482015260640161027a565b848260000160008282546105129190610b96565b909155505080548590829060009061052b908490610b96565b9091555050604051858152339087907fd4a7a37d339805413b4085e0f8e0932dfb0a4f84f08f98a6e53673b5ee8eee15906020015b60405180910390a3505050505050565b8260025481106105b65760405162461bcd60e51b8152602060048201526011602482015270125b9d985b1a59081bdc1d1a5bdb881251607a1b604482015260640161027a565b600084815260036020908152604080832033845260048352818420888552909252909120846106275760405162461bcd60e51b815260206004820152601460248201527f496e76616c696420736861726520616d6f756e74000000000000000000000000604482015260640161027a565b81548511156106785760405162461bcd60e51b815260206004820152601360248201527f496e73756666696369656e742073686172657300000000000000000000000000604482015260640161027a565b8360010361070e5780600101548511156106d45760405162461bcd60e51b815260206004820152601360248201527f496e73756666696369656e742073686172657300000000000000000000000000604482015260640161027a565b848260010160008282546106e89190610baf565b92505081905550848160010160008282546107039190610baf565b909155506107999050565b836000036104b657806002015485111561076a5760405162461bcd60e51b815260206004820152601360248201527f496e73756666696369656e742073686172657300000000000000000000000000604482015260640161027a565b8482600201600082825461077e9190610baf565b92505081905550848160020160008282546107039190610baf565b848260000160008282546107ad9190610baf565b90915550508054859082906000906107c6908490610baf565b90915550506005546040517fa9059cbb000000000000000000000000000000000000000000000000000000008152336004820152602481018790526001600160a01b039091169063a9059cbb906044016020604051808303816000875af1158015610835573d6000803e3d6000fd5b505050506040513d601f19601f820116820180604052508101906108599190610b5e565b50604051858152339087907f938a3e7589d60f00d1e57b9257ead6b218cde7829429cbbdc4afb037ddce222390602001610560565b6001805461089b90610bc2565b80601f01602080910402602001604051908101604052809291908181526020018280546108c790610bc2565b80156109145780601f106108e957610100808354040283529160200191610914565b820191906000526020600020905b8154815290600101906020018083116108f757829003601f168201915b505050505081565b6109246109ac565b6001600160a01b0381166109a05760405162461bcd60e51b815260206004820152602660248201527f4f776e61626c653a206e6577206f776e657220697320746865207a65726f206160448201527f6464726573730000000000000000000000000000000000000000000000000000606482015260840161027a565b6109a981610a06565b50565b6000546001600160a01b031633146102ef5760405162461bcd60e51b815260206004820181905260248201527f4f776e61626c653a2063616c6c6572206973206e6f7420746865206f776e6572604482015260640161027a565b600080546001600160a01b0383811673ffffffffffffffffffffffffffffffffffffffff19831681178455604051919092169283917f8be0079c531659141344cd1fd0a4f28419497f9722a3daafe3b4186f6b6457e09190a35050565b80356001600160a01b0381168114610a7a57600080fd5b919050565b60008060408385031215610a9257600080fd5b610a9b83610a63565b946020939093013593505050565b600060208284031215610abb57600080fd5b5035919050565b600060208284031215610ad457600080fd5b610add82610a63565b9392505050565b600080600060608486031215610af957600080fd5b505081359360208301359350604090920135919050565b600060208083528351808285015260005b81811015610b3d57858101830151858201604001528201610b21565b506000604082860101526040601f19601f8301168501019250505092915050565b600060208284031215610b7057600080fd5b81518015158114610add57600080fd5b634e487b7160e01b600052601160045260246000fd5b80820180821115610ba957610ba9610b80565b92915050565b81810381811115610ba957610ba9610b80565b600181811c90821680610bd657607f821691505b602082108103610bf657634e487b7160e01b600052602260045260246000fd5b5091905056fea2646970667358221220c4d3384e85a5794d0a200fc2b00ac5ff1de5aa8d48ed83a8657155eee950346c64736f6c63430008120033",
  "linkReferences": {},
  "deployedLinkReferences": {}
}